{
  "_format": "hh-sol-artifact-1",
  "contractName": "AlphaPouch",
  "sourceName": "contracts/AlphaPouch.sol",
  "abi": [
    {
      "inputs": [],
      "stateMutability": "nonpayable",
      "type": "constructor"
    },
    {
      "anonymous": false,
      "inputs": [
        {
          "indexed": true,
          "internalType": "address",
          "name": "owner",
          "type": "address"
        },
        {
          "indexed": true,
          "internalType": "address",
          "name": "approved",
          "type": "address"
        },
        {
          "indexed": true,
          "internalType": "uint256",
          "name": "tokenId",
          "type": "uint256"
        }
      ],
      "name": "Approval",
      "type": "event"
    },
    {
      "anonymous": false,
      "inputs": [
        {
          "indexed": true,
          "internalType": "address",
          "name": "owner",
          "type": "address"
        },
        {
          "indexed": true,
          "internalType": "address",
          "name": "operator",
          "type": "address"
        },
        {
          "indexed": false,
          "internalType": "bool",
          "name": "approved",
          "type": "bool"
        }
      ],
      "name": "ApprovalForAll",
      "type": "event"
    },
    {
      "anonymous": false,
      "inputs": [
        {
          "indexed": false,
          "internalType": "address",
          "name": "sender",
          "type": "address"
        },
        {
          "indexed": false,
          "internalType": "uint256",
          "name": "tokenId",
          "type": "uint256"
        }
      ],
      "name": "NewEpicNFTMinted",
      "type": "event"
    },
    {
      "anonymous": false,
      "inputs": [
        {
          "indexed": true,
          "internalType": "address",
          "name": "from",
          "type": "address"
        },
        {
          "indexed": true,
          "internalType": "address",
          "name": "to",
          "type": "address"
        },
        {
          "indexed": true,
          "internalType": "uint256",
          "name": "tokenId",
          "type": "uint256"
        }
      ],
      "name": "Transfer",
      "type": "event"
    },
    {
      "inputs": [],
      "name": "TOTAL_SUPPLY",
      "outputs": [
        {
          "internalType": "uint256",
          "name": "",
          "type": "uint256"
        }
      ],
      "stateMutability": "view",
      "type": "function"
    },
    {
      "inputs": [
        {
          "internalType": "address",
          "name": "to",
          "type": "address"
        },
        {
          "internalType": "uint256",
          "name": "tokenId",
          "type": "uint256"
        }
      ],
      "name": "approve",
      "outputs": [],
      "stateMutability": "nonpayable",
      "type": "function"
    },
    {
      "inputs": [
        {
          "internalType": "address",
          "name": "owner",
          "type": "address"
        }
      ],
      "name": "balanceOf",
      "outputs": [
        {
          "internalType": "uint256",
          "name": "",
          "type": "uint256"
        }
      ],
      "stateMutability": "view",
      "type": "function"
    },
    {
      "inputs": [
        {
          "internalType": "uint256",
          "name": "tokenId",
          "type": "uint256"
        }
      ],
      "name": "getApproved",
      "outputs": [
        {
          "internalType": "address",
          "name": "",
          "type": "address"
        }
      ],
      "stateMutability": "view",
      "type": "function"
    },
    {
      "inputs": [
        {
          "internalType": "address",
          "name": "owner",
          "type": "address"
        },
        {
          "internalType": "address",
          "name": "operator",
          "type": "address"
        }
      ],
      "name": "isApprovedForAll",
      "outputs": [
        {
          "internalType": "bool",
          "name": "",
          "type": "bool"
        }
      ],
      "stateMutability": "view",
      "type": "function"
    },
    {
      "inputs": [],
      "name": "makeAnEpicNFT",
      "outputs": [],
      "stateMutability": "nonpayable",
      "type": "function"
    },
    {
      "inputs": [],
      "name": "name",
      "outputs": [
        {
          "internalType": "string",
          "name": "",
          "type": "string"
        }
      ],
      "stateMutability": "view",
      "type": "function"
    },
    {
      "inputs": [
        {
          "internalType": "uint256",
          "name": "tokenId",
          "type": "uint256"
        }
      ],
      "name": "ownerOf",
      "outputs": [
        {
          "internalType": "address",
          "name": "",
          "type": "address"
        }
      ],
      "stateMutability": "view",
      "type": "function"
    },
    {
      "inputs": [
        {
          "internalType": "address",
          "name": "from",
          "type": "address"
        },
        {
          "internalType": "address",
          "name": "to",
          "type": "address"
        },
        {
          "internalType": "uint256",
          "name": "tokenId",
          "type": "uint256"
        }
      ],
      "name": "safeTransferFrom",
      "outputs": [],
      "stateMutability": "nonpayable",
      "type": "function"
    },
    {
      "inputs": [
        {
          "internalType": "address",
          "name": "from",
          "type": "address"
        },
        {
          "internalType": "address",
          "name": "to",
          "type": "address"
        },
        {
          "internalType": "uint256",
          "name": "tokenId",
          "type": "uint256"
        },
        {
          "internalType": "bytes",
          "name": "data",
          "type": "bytes"
        }
      ],
      "name": "safeTransferFrom",
      "outputs": [],
      "stateMutability": "nonpayable",
      "type": "function"
    },
    {
      "inputs": [
        {
          "internalType": "address",
          "name": "operator",
          "type": "address"
        },
        {
          "internalType": "bool",
          "name": "approved",
          "type": "bool"
        }
      ],
      "name": "setApprovalForAll",
      "outputs": [],
      "stateMutability": "nonpayable",
      "type": "function"
    },
    {
      "inputs": [
        {
          "internalType": "bytes4",
          "name": "interfaceId",
          "type": "bytes4"
        }
      ],
      "name": "supportsInterface",
      "outputs": [
        {
          "internalType": "bool",
          "name": "",
          "type": "bool"
        }
      ],
      "stateMutability": "view",
      "type": "function"
    },
    {
      "inputs": [],
      "name": "symbol",
      "outputs": [
        {
          "internalType": "string",
          "name": "",
          "type": "string"
        }
      ],
      "stateMutability": "view",
      "type": "function"
    },
    {
      "inputs": [
        {
          "internalType": "uint256",
          "name": "tokenId",
          "type": "uint256"
        }
      ],
      "name": "tokenURI",
      "outputs": [
        {
          "internalType": "string",
          "name": "",
          "type": "string"
        }
      ],
      "stateMutability": "view",
      "type": "function"
    },
    {
      "inputs": [
        {
          "internalType": "address",
          "name": "from",
          "type": "address"
        },
        {
          "internalType": "address",
          "name": "to",
          "type": "address"
        },
        {
          "internalType": "uint256",
          "name": "tokenId",
          "type": "uint256"
        }
      ],
      "name": "transferFrom",
      "outputs": [],
      "stateMutability": "nonpayable",
      "type": "function"
    }
  ],
  "bytecode": "0x60806040526040518060400160405280600581526020017f4f75636821000000000000000000000000000000000000000000000000000000815250600890816200004a919062000788565b5060086040516020016200005f919062000b03565b604051602081830303815290604052600990816200007e919062000788565b506200016060086200012d60098054620000989062000577565b80601f0160208091040260200160405190810160405280929190818152602001828054620000c69062000577565b8015620001175780601f10620000eb5761010080835404028352916020019162000117565b820191906000526020600020905b815481529060010190602001808311620000f957829003601f168201915b50505050506200029660201b62000ba51760201c565b6040516020016200014092919062000cfb565b6040516020818303038152906040526200029660201b62000ba51760201c565b600a908162000170919062000788565b50600a60405160200162000185919062000d9a565b604051602081830303815290604052600b9081620001a4919062000788565b50348015620001b257600080fd5b506040518060400160405280600981526020017f5371756172654e465400000000000000000000000000000000000000000000008152506040518060400160405280600681526020017f5351554152450000000000000000000000000000000000000000000000000000815250816000908162000230919062000788565b50806001908162000242919062000788565b505050620002906040518060400160405280601e81526020017f54686973206973206d79204e465420636f6e74726163742e20576f61682100008152506200044260201b62000d3c1760201c565b62000f63565b606060008251905060008103620002c057604051806020016040528060008152509150506200043d565b60006003600283620002d3919062000def565b620002df919062000e59565b6004620002ed919062000e91565b9050600060208262000300919062000def565b67ffffffffffffffff8111156200031c576200031b62000519565b5b6040519080825280601f01601f1916602001820160405280156200034f5781602001600182028036833780820191505090505b5090506000604051806060016040528060408152602001620040b9604091399050600181016020830160005b86811015620003f65760038101905062ffffff818a015116603f8160121c168401518060081b905060ff603f83600c1c1686015116810190508060081b905060ff603f8360061c1686015116810190508060081b905060ff603f831686015116810190508060e01b905080845260048401935050506200037b565b50600386066001811462000413576002811462000424576200042f565b613d3d60f01b60028303526200042f565b603d60f81b60018303525b508484525050819450505050505b919050565b620004e28160405160240162000459919062000f3f565b6040516020818303038152906040527f41304fac000000000000000000000000000000000000000000000000000000007bffffffffffffffffffffffffffffffffffffffffffffffffffffffff19166020820180517bffffffffffffffffffffffffffffffffffffffffffffffffffffffff8381831617835250505050620004e560201b60201c565b50565b60008151905060006a636f6e736f6c652e6c6f679050602083016000808483855afa5050505050565b600081519050919050565b7f4e487b7100000000000000000000000000000000000000000000000000000000600052604160045260246000fd5b7f4e487b7100000000000000000000000000000000000000000000000000000000600052602260045260246000fd5b600060028204905060018216806200059057607f821691505b602082108103620005a657620005a562000548565b5b50919050565b60008190508160005260206000209050919050565b60006020601f8301049050919050565b600082821b905092915050565b600060088302620006107fffffffffffffffffffffffffffffffffffffffffffffffffffffffffffffffff82620005d1565b6200061c8683620005d1565b95508019841693508086168417925050509392505050565b6000819050919050565b6000819050919050565b600062000669620006636200065d8462000634565b6200063e565b62000634565b9050919050565b6000819050919050565b620006858362000648565b6200069d620006948262000670565b848454620005de565b825550505050565b600090565b620006b4620006a5565b620006c18184846200067a565b505050565b5b81811015620006e957620006dd600082620006aa565b600181019050620006c7565b5050565b601f82111562000738576200070281620005ac565b6200070d84620005c1565b810160208510156200071d578190505b620007356200072c85620005c1565b830182620006c6565b50505b505050565b600082821c905092915050565b60006200075d600019846008026200073d565b1980831691505092915050565b60006200077883836200074a565b9150826002028217905092915050565b62000793826200050e565b67ffffffffffffffff811115620007af57620007ae62000519565b5b620007bb825462000577565b620007c8828285620006ed565b600060209050601f831160018114620008005760008415620007eb578287015190505b620007f785826200076a565b86555062000867565b601f1984166200081086620005ac565b60005b828110156200083a5784890151825560018201915060208501945060208101905062000813565b868310156200085a578489015162000856601f8916826200074a565b8355505b6001600288020188555050505b505050505050565b600081905092915050565b7f3c73766720786d6c6e733d27687474703a2f2f7777772e77332e6f72672f323060008201527f30302f73766727207072657365727665417370656374526174696f3d27784d6960208201527f6e594d696e206d656574272076696577426f783d27302030203335302033353060408201527f273e3c7374796c653e2e62617365207b2066696c6c3a2077686974653b20666f60608201527f6e742d66616d696c793a2073657269663b20666f6e742d73697a653a2031347060808201527f783b207d3c2f7374796c653e3c726563742077696474683d273130302527206860a08201527f65696768743d2731303025272066696c6c3d27626c61636b27202f3e3c74657860c08201527f7420783d273530252720793d273530252720636c6173733d276261736527206460e08201527f6f6d696e616e742d626173656c696e653d276d6964646c652720746578742d616101008201527f6e63686f723d276d6964646c65273e000000000000000000000000000000000061012082015250565b600062000a0b61012f836200086f565b915062000a18826200087a565b61012f82019050919050565b6000815462000a338162000577565b62000a3f81866200086f565b9450600182166000811462000a5d576001811462000a735762000aaa565b60ff198316865281151582028601935062000aaa565b62000a7e85620005ac565b60005b8381101562000aa25781548189015260018201915060208101905062000a81565b838801955050505b50505092915050565b7f3c2f746578743e3c2f7376673e00000000000000000000000000000000000000600082015250565b600062000aeb600d836200086f565b915062000af88262000ab3565b600d82019050919050565b600062000b1082620009fb565b915062000b1e828462000a24565b915062000b2b8262000adc565b915081905092915050565b7f7b226e616d65223a202200000000000000000000000000000000000000000000600082015250565b600062000b6e600a836200086f565b915062000b7b8262000b36565b600a82019050919050565b7f222c20226465736372697074696f6e223a20224120686967686c79206163636c60008201527f61696d656420636f6c6c656374696f6e206f6620737175617265732e222c202260208201527f696d616765223a2022646174613a696d6167652f7376672b786d6c3b6261736560408201527f36342c0000000000000000000000000000000000000000000000000000000000606082015250565b600062000c306063836200086f565b915062000c3d8262000b86565b606382019050919050565b60005b8381101562000c6857808201518184015260208101905062000c4b565b60008484015250505050565b600062000c81826200050e565b62000c8d81856200086f565b935062000c9f81856020860162000c48565b80840191505092915050565b7f227d000000000000000000000000000000000000000000000000000000000000600082015250565b600062000ce36002836200086f565b915062000cf08262000cab565b600282019050919050565b600062000d088262000b5f565b915062000d16828562000a24565b915062000d238262000c21565b915062000d31828462000c74565b915062000d3e8262000cd4565b91508190509392505050565b7f646174613a6170706c69636174696f6e2f6a736f6e3b6261736536342c000000600082015250565b600062000d82601d836200086f565b915062000d8f8262000d4a565b601d82019050919050565b600062000da78262000d73565b915062000db5828462000a24565b915081905092915050565b7f4e487b7100000000000000000000000000000000000000000000000000000000600052601160045260246000fd5b600062000dfc8262000634565b915062000e098362000634565b925082820190508082111562000e245762000e2362000dc0565b5b92915050565b7f4e487b7100000000000000000000000000000000000000000000000000000000600052601260045260246000fd5b600062000e668262000634565b915062000e738362000634565b92508262000e865762000e8562000e2a565b5b828204905092915050565b600062000e9e8262000634565b915062000eab8362000634565b925082820262000ebb8162000634565b9150828204841483151762000ed55762000ed462000dc0565b5b5092915050565b600082825260208201905092915050565b6000601f19601f8301169050919050565b600062000f0b826200050e565b62000f17818562000edc565b935062000f2981856020860162000c48565b62000f348162000eed565b840191505092915050565b6000602082019050818103600083015262000f5b818462000efe565b905092915050565b6131468062000f736000396000f3fe608060405234801561001057600080fd5b50600436106100f55760003560e01c806370a0823111610097578063b88d4fde11610066578063b88d4fde14610284578063c87b56dd146102a0578063de9d132f146102d0578063e985e9c5146102da576100f5565b806370a08231146101fc578063902d55a51461022c57806395d89b411461024a578063a22cb46514610268576100f5565b8063095ea7b3116100d3578063095ea7b31461017857806323b872dd1461019457806342842e0e146101b05780636352211e146101cc576100f5565b806301ffc9a7146100fa57806306fdde031461012a578063081812fc14610148575b600080fd5b610114600480360381019061010f9190611ef0565b61030a565b6040516101219190611f38565b60405180910390f35b6101326103ec565b60405161013f9190611fe3565b60405180910390f35b610162600480360381019061015d919061203b565b61047e565b60405161016f91906120a9565b60405180910390f35b610192600480360381019061018d91906120f0565b6104c4565b005b6101ae60048036038101906101a99190612130565b6105db565b005b6101ca60048036038101906101c59190612130565b61063b565b005b6101e660048036038101906101e1919061203b565b61065b565b6040516101f391906120a9565b60405180910390f35b61021660048036038101906102119190612183565b6106e1565b60405161022391906121bf565b60405180910390f35b610234610798565b60405161024191906121bf565b60405180910390f35b61025261079d565b60405161025f9190611fe3565b60405180910390f35b610282600480360381019061027d9190612206565b61082f565b005b61029e6004803603810190610299919061237b565b610845565b005b6102ba60048036038101906102b5919061203b565b6108a7565b6040516102c79190611fe3565b60405180910390f35b6102d86109b9565b005b6102f460048036038101906102ef91906123fe565b610b11565b6040516103019190611f38565b60405180910390f35b60007f80ac58cd000000000000000000000000000000000000000000000000000000007bffffffffffffffffffffffffffffffffffffffffffffffffffffffff1916827bffffffffffffffffffffffffffffffffffffffffffffffffffffffff191614806103d557507f5b5e139f000000000000000000000000000000000000000000000000000000007bffffffffffffffffffffffffffffffffffffffffffffffffffffffff1916827bffffffffffffffffffffffffffffffffffffffffffffffffffffffff1916145b806103e557506103e482610dd5565b5b9050919050565b6060600080546103fb9061246d565b80601f01602080910402602001604051908101604052809291908181526020018280546104279061246d565b80156104745780601f1061044957610100808354040283529160200191610474565b820191906000526020600020905b81548152906001019060200180831161045757829003601f168201915b5050505050905090565b600061048982610e3f565b6004600083815260200190815260200160002060009054906101000a900473ffffffffffffffffffffffffffffffffffffffff169050919050565b60006104cf8261065b565b90508073ffffffffffffffffffffffffffffffffffffffff168373ffffffffffffffffffffffffffffffffffffffff160361053f576040517f08c379a000000000000000000000000000000000000000000000000000000000815260040161053690612510565b60405180910390fd5b8073ffffffffffffffffffffffffffffffffffffffff1661055e610e8a565b73ffffffffffffffffffffffffffffffffffffffff16148061058d575061058c81610587610e8a565b610b11565b5b6105cc576040517f08c379a00000000000000000000000000000000000000000000000000000000081526004016105c3906125a2565b60405180910390fd5b6105d68383610e92565b505050565b6105ec6105e6610e8a565b82610f4b565b61062b576040517f08c379a000000000000000000000000000000000000000000000000000000000815260040161062290612634565b60405180910390fd5b610636838383610fe0565b505050565b61065683838360405180602001604052806000815250610845565b505050565b600080610667836112d9565b9050600073ffffffffffffffffffffffffffffffffffffffff168173ffffffffffffffffffffffffffffffffffffffff16036106d8576040517f08c379a00000000000000000000000000000000000000000000000000000000081526004016106cf906126a0565b60405180910390fd5b80915050919050565b60008073ffffffffffffffffffffffffffffffffffffffff168273ffffffffffffffffffffffffffffffffffffffff1603610751576040517f08c379a000000000000000000000000000000000000000000000000000000000815260040161074890612732565b60405180910390fd5b600360008373ffffffffffffffffffffffffffffffffffffffff1673ffffffffffffffffffffffffffffffffffffffff168152602001908152602001600020549050919050565b603281565b6060600180546107ac9061246d565b80601f01602080910402602001604051908101604052809291908181526020018280546107d89061246d565b80156108255780601f106107fa57610100808354040283529160200191610825565b820191906000526020600020905b81548152906001019060200180831161080857829003601f168201915b5050505050905090565b61084161083a610e8a565b8383611316565b5050565b610856610850610e8a565b83610f4b565b610895576040517f08c379a000000000000000000000000000000000000000000000000000000000815260040161088c90612634565b60405180910390fd5b6108a184848484611482565b50505050565b60606108b282610e3f565b60006006600084815260200190815260200160002080546108d29061246d565b80601f01602080910402602001604051908101604052809291908181526020018280546108fe9061246d565b801561094b5780601f106109205761010080835404028352916020019161094b565b820191906000526020600020905b81548152906001019060200180831161092e57829003601f168201915b50505050509050600061095c6114de565b905060008151036109715781925050506109b4565b6000825111156109a657808260405160200161098e92919061278e565b604051602081830303815290604052925050506109b4565b6109af846114f5565b925050505b919050565b60006109c5600761155d565b905060328110610a0a576040517f08c379a0000000000000000000000000000000000000000000000000000000008152600401610a01906127fe565b60405180910390fd5b610a14338261156b565b610aa881600b8054610a259061246d565b80601f0160208091040260200160405190810160405280929190818152602001828054610a519061246d565b8015610a9e5780601f10610a7357610100808354040283529160200191610a9e565b820191906000526020600020905b815481529060010190602001808311610a8157829003601f168201915b5050505050611589565b610ab260076115f6565b610ad56040518060600160405280602581526020016130ac60259139823361160c565b7febb98688741ffa4c7589bf325de30cf7becb63de567842e1ccdb6cb949fdc82c3382604051610b0692919061281e565b60405180910390a150565b6000600560008473ffffffffffffffffffffffffffffffffffffffff1673ffffffffffffffffffffffffffffffffffffffff16815260200190815260200160002060008373ffffffffffffffffffffffffffffffffffffffff1673ffffffffffffffffffffffffffffffffffffffff16815260200190815260200160002060009054906101000a900460ff16905092915050565b606060008251905060008103610bcd5760405180602001604052806000815250915050610d37565b60006003600283610bde9190612876565b610be891906128d9565b6004610bf4919061290a565b90506000602082610c059190612876565b67ffffffffffffffff811115610c1e57610c1d612250565b5b6040519080825280601f01601f191660200182016040528015610c505781602001600182028036833780820191505090505b50905060006040518060600160405280604081526020016130d1604091399050600181016020830160005b86811015610cf45760038101905062ffffff818a015116603f8160121c168401518060081b905060ff603f83600c1c1686015116810190508060081b905060ff603f8360061c1686015116810190508060081b905060ff603f831686015116810190508060e01b90508084526004840193505050610c7b565b506003860660018114610d0e5760028114610d1e57610d29565b613d3d60f01b6002830352610d29565b603d60f81b60018303525b508484525050819450505050505b919050565b610dd281604051602401610d509190611fe3565b6040516020818303038152906040527f41304fac000000000000000000000000000000000000000000000000000000007bffffffffffffffffffffffffffffffffffffffffffffffffffffffff19166020820180517bffffffffffffffffffffffffffffffffffffffffffffffffffffffff83818316178352505050506116ab565b50565b60007f01ffc9a7000000000000000000000000000000000000000000000000000000007bffffffffffffffffffffffffffffffffffffffffffffffffffffffff1916827bffffffffffffffffffffffffffffffffffffffffffffffffffffffff1916149050919050565b610e48816116d4565b610e87576040517f08c379a0000000000000000000000000000000000000000000000000000000008152600401610e7e906126a0565b60405180910390fd5b50565b600033905090565b816004600083815260200190815260200160002060006101000a81548173ffffffffffffffffffffffffffffffffffffffff021916908373ffffffffffffffffffffffffffffffffffffffff160217905550808273ffffffffffffffffffffffffffffffffffffffff16610f058361065b565b73ffffffffffffffffffffffffffffffffffffffff167f8c5be1e5ebec7d5bd14f71427d1e84f3dd0314c0f7b2291e5b200ac8c7c3b92560405160405180910390a45050565b600080610f578361065b565b90508073ffffffffffffffffffffffffffffffffffffffff168473ffffffffffffffffffffffffffffffffffffffff161480610f995750610f988185610b11565b5b80610fd757508373ffffffffffffffffffffffffffffffffffffffff16610fbf8461047e565b73ffffffffffffffffffffffffffffffffffffffff16145b91505092915050565b8273ffffffffffffffffffffffffffffffffffffffff166110008261065b565b73ffffffffffffffffffffffffffffffffffffffff1614611056576040517f08c379a000000000000000000000000000000000000000000000000000000000815260040161104d906129be565b60405180910390fd5b600073ffffffffffffffffffffffffffffffffffffffff168273ffffffffffffffffffffffffffffffffffffffff16036110c5576040517f08c379a00000000000000000000000000000000000000000000000000000000081526004016110bc90612a50565b60405180910390fd5b6110d28383836001611715565b8273ffffffffffffffffffffffffffffffffffffffff166110f28261065b565b73ffffffffffffffffffffffffffffffffffffffff1614611148576040517f08c379a000000000000000000000000000000000000000000000000000000000815260040161113f906129be565b60405180910390fd5b6004600082815260200190815260200160002060006101000a81549073ffffffffffffffffffffffffffffffffffffffff02191690556001600360008573ffffffffffffffffffffffffffffffffffffffff1673ffffffffffffffffffffffffffffffffffffffff168152602001908152602001600020600082825403925050819055506001600360008473ffffffffffffffffffffffffffffffffffffffff1673ffffffffffffffffffffffffffffffffffffffff16815260200190815260200160002060008282540192505081905550816002600083815260200190815260200160002060006101000a81548173ffffffffffffffffffffffffffffffffffffffff021916908373ffffffffffffffffffffffffffffffffffffffff160217905550808273ffffffffffffffffffffffffffffffffffffffff168473ffffffffffffffffffffffffffffffffffffffff167fddf252ad1be2c89b69c2b068fc378daa952ba7f163c4a11628f55a4df523b3ef60405160405180910390a46112d4838383600161183b565b505050565b60006002600083815260200190815260200160002060009054906101000a900473ffffffffffffffffffffffffffffffffffffffff169050919050565b8173ffffffffffffffffffffffffffffffffffffffff168373ffffffffffffffffffffffffffffffffffffffff1603611384576040517f08c379a000000000000000000000000000000000000000000000000000000000815260040161137b90612abc565b60405180910390fd5b80600560008573ffffffffffffffffffffffffffffffffffffffff1673ffffffffffffffffffffffffffffffffffffffff16815260200190815260200160002060008473ffffffffffffffffffffffffffffffffffffffff1673ffffffffffffffffffffffffffffffffffffffff16815260200190815260200160002060006101000a81548160ff0219169083151502179055508173ffffffffffffffffffffffffffffffffffffffff168373ffffffffffffffffffffffffffffffffffffffff167f17307eab39ab6107e8899845ad3d59bd9653f200f220920489ca2b5937696c31836040516114759190611f38565b60405180910390a3505050565b61148d848484610fe0565b61149984848484611841565b6114d8576040517f08c379a00000000000000000000000000000000000000000000000000000000081526004016114cf90612b4e565b60405180910390fd5b50505050565b606060405180602001604052806000815250905090565b606061150082610e3f565b600061150a6114de565b9050600081511161152a5760405180602001604052806000815250611555565b80611534846119c8565b60405160200161154592919061278e565b6040516020818303038152906040525b915050919050565b600081600001549050919050565b611585828260405180602001604052806000815250611a96565b5050565b611592826116d4565b6115d1576040517f08c379a00000000000000000000000000000000000000000000000000000000081526004016115c890612be0565b60405180910390fd5b806006600084815260200190815260200160002090816115f19190612dac565b505050565b6001816000016000828254019250508190555050565b6116a683838360405160240161162493929190612e7e565b6040516020818303038152906040527f1c7ec448000000000000000000000000000000000000000000000000000000007bffffffffffffffffffffffffffffffffffffffffffffffffffffffff19166020820180517bffffffffffffffffffffffffffffffffffffffffffffffffffffffff83818316178352505050506116ab565b505050565b60008151905060006a636f6e736f6c652e6c6f679050602083016000808483855afa5050505050565b60008073ffffffffffffffffffffffffffffffffffffffff166116f6836112d9565b73ffffffffffffffffffffffffffffffffffffffff1614159050919050565b600181111561183557600073ffffffffffffffffffffffffffffffffffffffff168473ffffffffffffffffffffffffffffffffffffffff16146117a95780600360008673ffffffffffffffffffffffffffffffffffffffff1673ffffffffffffffffffffffffffffffffffffffff16815260200190815260200160002060008282546117a19190612ebc565b925050819055505b600073ffffffffffffffffffffffffffffffffffffffff168373ffffffffffffffffffffffffffffffffffffffff16146118345780600360008573ffffffffffffffffffffffffffffffffffffffff1673ffffffffffffffffffffffffffffffffffffffff168152602001908152602001600020600082825461182c9190612876565b925050819055505b5b50505050565b50505050565b60006118628473ffffffffffffffffffffffffffffffffffffffff16611af1565b156119bb578373ffffffffffffffffffffffffffffffffffffffff1663150b7a0261188b610e8a565b8786866040518563ffffffff1660e01b81526004016118ad9493929190612f45565b6020604051808303816000875af19250505080156118e957506040513d601f19601f820116820180604052508101906118e69190612fa6565b60015b61196b573d8060008114611919576040519150601f19603f3d011682016040523d82523d6000602084013e61191e565b606091505b506000815103611963576040517f08c379a000000000000000000000000000000000000000000000000000000000815260040161195a90612b4e565b60405180910390fd5b805181602001fd5b63150b7a0260e01b7bffffffffffffffffffffffffffffffffffffffffffffffffffffffff1916817bffffffffffffffffffffffffffffffffffffffffffffffffffffffff1916149150506119c0565b600190505b949350505050565b6060600060016119d784611b14565b01905060008167ffffffffffffffff8111156119f6576119f5612250565b5b6040519080825280601f01601f191660200182016040528015611a285781602001600182028036833780820191505090505b509050600082602001820190505b600115611a8b578080600190039150507f3031323334353637383961626364656600000000000000000000000000000000600a86061a8153600a8581611a7f57611a7e6128aa565b5b04945060008503611a36575b819350505050919050565b611aa08383611c67565b611aad6000848484611841565b611aec576040517f08c379a0000000000000000000000000000000000000000000000000000000008152600401611ae390612b4e565b60405180910390fd5b505050565b6000808273ffffffffffffffffffffffffffffffffffffffff163b119050919050565b600080600090507a184f03e93ff9f4daa797ed6e38ed64bf6a1f0100000000000000008310611b72577a184f03e93ff9f4daa797ed6e38ed64bf6a1f0100000000000000008381611b6857611b676128aa565b5b0492506040810190505b6d04ee2d6d415b85acef81000000008310611baf576d04ee2d6d415b85acef81000000008381611ba557611ba46128aa565b5b0492506020810190505b662386f26fc100008310611bde57662386f26fc100008381611bd457611bd36128aa565b5b0492506010810190505b6305f5e1008310611c07576305f5e1008381611bfd57611bfc6128aa565b5b0492506008810190505b6127108310611c2c576127108381611c2257611c216128aa565b5b0492506004810190505b60648310611c4f5760648381611c4557611c446128aa565b5b0492506002810190505b600a8310611c5e576001810190505b80915050919050565b600073ffffffffffffffffffffffffffffffffffffffff168273ffffffffffffffffffffffffffffffffffffffff1603611cd6576040517f08c379a0000000000000000000000000000000000000000000000000000000008152600401611ccd9061301f565b60405180910390fd5b611cdf816116d4565b15611d1f576040517f08c379a0000000000000000000000000000000000000000000000000000000008152600401611d169061308b565b60405180910390fd5b611d2d600083836001611715565b611d36816116d4565b15611d76576040517f08c379a0000000000000000000000000000000000000000000000000000000008152600401611d6d9061308b565b60405180910390fd5b6001600360008473ffffffffffffffffffffffffffffffffffffffff1673ffffffffffffffffffffffffffffffffffffffff16815260200190815260200160002060008282540192505081905550816002600083815260200190815260200160002060006101000a81548173ffffffffffffffffffffffffffffffffffffffff021916908373ffffffffffffffffffffffffffffffffffffffff160217905550808273ffffffffffffffffffffffffffffffffffffffff16600073ffffffffffffffffffffffffffffffffffffffff167fddf252ad1be2c89b69c2b068fc378daa952ba7f163c4a11628f55a4df523b3ef60405160405180910390a4611e8060008383600161183b565b5050565b6000604051905090565b600080fd5b600080fd5b60007fffffffff0000000000000000000000000000000000000000000000000000000082169050919050565b611ecd81611e98565b8114611ed857600080fd5b50565b600081359050611eea81611ec4565b92915050565b600060208284031215611f0657611f05611e8e565b5b6000611f1484828501611edb565b91505092915050565b60008115159050919050565b611f3281611f1d565b82525050565b6000602082019050611f4d6000830184611f29565b92915050565b600081519050919050565b600082825260208201905092915050565b60005b83811015611f8d578082015181840152602081019050611f72565b60008484015250505050565b6000601f19601f8301169050919050565b6000611fb582611f53565b611fbf8185611f5e565b9350611fcf818560208601611f6f565b611fd881611f99565b840191505092915050565b60006020820190508181036000830152611ffd8184611faa565b905092915050565b6000819050919050565b61201881612005565b811461202357600080fd5b50565b6000813590506120358161200f565b92915050565b60006020828403121561205157612050611e8e565b5b600061205f84828501612026565b91505092915050565b600073ffffffffffffffffffffffffffffffffffffffff82169050919050565b600061209382612068565b9050919050565b6120a381612088565b82525050565b60006020820190506120be600083018461209a565b92915050565b6120cd81612088565b81146120d857600080fd5b50565b6000813590506120ea816120c4565b92915050565b6000806040838503121561210757612106611e8e565b5b6000612115858286016120db565b925050602061212685828601612026565b9150509250929050565b60008060006060848603121561214957612148611e8e565b5b6000612157868287016120db565b9350506020612168868287016120db565b925050604061217986828701612026565b9150509250925092565b60006020828403121561219957612198611e8e565b5b60006121a7848285016120db565b91505092915050565b6121b981612005565b82525050565b60006020820190506121d460008301846121b0565b92915050565b6121e381611f1d565b81146121ee57600080fd5b50565b600081359050612200816121da565b92915050565b6000806040838503121561221d5761221c611e8e565b5b600061222b858286016120db565b925050602061223c858286016121f1565b9150509250929050565b600080fd5b600080fd5b7f4e487b7100000000000000000000000000000000000000000000000000000000600052604160045260246000fd5b61228882611f99565b810181811067ffffffffffffffff821117156122a7576122a6612250565b5b80604052505050565b60006122ba611e84565b90506122c6828261227f565b919050565b600067ffffffffffffffff8211156122e6576122e5612250565b5b6122ef82611f99565b9050602081019050919050565b82818337600083830152505050565b600061231e612319846122cb565b6122b0565b90508281526020810184848401111561233a5761233961224b565b5b6123458482856122fc565b509392505050565b600082601f83011261236257612361612246565b5b813561237284826020860161230b565b91505092915050565b6000806000806080858703121561239557612394611e8e565b5b60006123a3878288016120db565b94505060206123b4878288016120db565b93505060406123c587828801612026565b925050606085013567ffffffffffffffff8111156123e6576123e5611e93565b5b6123f28782880161234d565b91505092959194509250565b6000806040838503121561241557612414611e8e565b5b6000612423858286016120db565b9250506020612434858286016120db565b9150509250929050565b7f4e487b7100000000000000000000000000000000000000000000000000000000600052602260045260246000fd5b6000600282049050600182168061248557607f821691505b6020821081036124985761249761243e565b5b50919050565b7f4552433732313a20617070726f76616c20746f2063757272656e74206f776e6560008201527f7200000000000000000000000000000000000000000000000000000000000000602082015250565b60006124fa602183611f5e565b91506125058261249e565b604082019050919050565b60006020820190508181036000830152612529816124ed565b9050919050565b7f4552433732313a20617070726f76652063616c6c6572206973206e6f7420746f60008201527f6b656e206f776e6572206f7220617070726f76656420666f7220616c6c000000602082015250565b600061258c603d83611f5e565b915061259782612530565b604082019050919050565b600060208201905081810360008301526125bb8161257f565b9050919050565b7f4552433732313a2063616c6c6572206973206e6f7420746f6b656e206f776e6560008201527f72206f7220617070726f76656400000000000000000000000000000000000000602082015250565b600061261e602d83611f5e565b9150612629826125c2565b604082019050919050565b6000602082019050818103600083015261264d81612611565b9050919050565b7f4552433732313a20696e76616c696420746f6b656e2049440000000000000000600082015250565b600061268a601883611f5e565b915061269582612654565b602082019050919050565b600060208201905081810360008301526126b98161267d565b9050919050565b7f4552433732313a2061646472657373207a65726f206973206e6f74206120766160008201527f6c6964206f776e65720000000000000000000000000000000000000000000000602082015250565b600061271c602983611f5e565b9150612727826126c0565b604082019050919050565b6000602082019050818103600083015261274b8161270f565b9050919050565b600081905092915050565b600061276882611f53565b6127728185612752565b9350612782818560208601611f6f565b80840191505092915050565b600061279a828561275d565b91506127a6828461275d565b91508190509392505050565b7f536f6c64206f7574000000000000000000000000000000000000000000000000600082015250565b60006127e8600883611f5e565b91506127f3826127b2565b602082019050919050565b60006020820190508181036000830152612817816127db565b9050919050565b6000604082019050612833600083018561209a565b61284060208301846121b0565b9392505050565b7f4e487b7100000000000000000000000000000000000000000000000000000000600052601160045260246000fd5b600061288182612005565b915061288c83612005565b92508282019050808211156128a4576128a3612847565b5b92915050565b7f4e487b7100000000000000000000000000000000000000000000000000000000600052601260045260246000fd5b60006128e482612005565b91506128ef83612005565b9250826128ff576128fe6128aa565b5b828204905092915050565b600061291582612005565b915061292083612005565b925082820261292e81612005565b9150828204841483151761294557612944612847565b5b5092915050565b7f4552433732313a207472616e736665722066726f6d20696e636f72726563742060008201527f6f776e6572000000000000000000000000000000000000000000000000000000602082015250565b60006129a8602583611f5e565b91506129b38261294c565b604082019050919050565b600060208201905081810360008301526129d78161299b565b9050919050565b7f4552433732313a207472616e7366657220746f20746865207a65726f2061646460008201527f7265737300000000000000000000000000000000000000000000000000000000602082015250565b6000612a3a602483611f5e565b9150612a45826129de565b604082019050919050565b60006020820190508181036000830152612a6981612a2d565b9050919050565b7f4552433732313a20617070726f766520746f2063616c6c657200000000000000600082015250565b6000612aa6601983611f5e565b9150612ab182612a70565b602082019050919050565b60006020820190508181036000830152612ad581612a99565b9050919050565b7f4552433732313a207472616e7366657220746f206e6f6e20455243373231526560008201527f63656976657220696d706c656d656e7465720000000000000000000000000000602082015250565b6000612b38603283611f5e565b9150612b4382612adc565b604082019050919050565b60006020820190508181036000830152612b6781612b2b565b9050919050565b7f45524337323155524953746f726167653a2055524920736574206f66206e6f6e60008201527f6578697374656e7420746f6b656e000000000000000000000000000000000000602082015250565b6000612bca602e83611f5e565b9150612bd582612b6e565b604082019050919050565b60006020820190508181036000830152612bf981612bbd565b9050919050565b60008190508160005260206000209050919050565b60006020601f8301049050919050565b600082821b905092915050565b600060088302612c627fffffffffffffffffffffffffffffffffffffffffffffffffffffffffffffffff82612c25565b612c6c8683612c25565b95508019841693508086168417925050509392505050565b6000819050919050565b6000612ca9612ca4612c9f84612005565b612c84565b612005565b9050919050565b6000819050919050565b612cc383612c8e565b612cd7612ccf82612cb0565b848454612c32565b825550505050565b600090565b612cec612cdf565b612cf7818484612cba565b505050565b5b81811015612d1b57612d10600082612ce4565b600181019050612cfd565b5050565b601f821115612d6057612d3181612c00565b612d3a84612c15565b81016020851015612d49578190505b612d5d612d5585612c15565b830182612cfc565b50505b505050565b600082821c905092915050565b6000612d8360001984600802612d65565b1980831691505092915050565b6000612d9c8383612d72565b9150826002028217905092915050565b612db582611f53565b67ffffffffffffffff811115612dce57612dcd612250565b5b612dd8825461246d565b612de3828285612d1f565b600060209050601f831160018114612e165760008415612e04578287015190505b612e0e8582612d90565b865550612e76565b601f198416612e2486612c00565b60005b82811015612e4c57848901518255600182019150602085019450602081019050612e27565b86831015612e695784890151612e65601f891682612d72565b8355505b6001600288020188555050505b505050505050565b60006060820190508181036000830152612e988186611faa565b9050612ea760208301856121b0565b612eb4604083018461209a565b949350505050565b6000612ec782612005565b9150612ed283612005565b9250828203905081811115612eea57612ee9612847565b5b92915050565b600081519050919050565b600082825260208201905092915050565b6000612f1782612ef0565b612f218185612efb565b9350612f31818560208601611f6f565b612f3a81611f99565b840191505092915050565b6000608082019050612f5a600083018761209a565b612f67602083018661209a565b612f7460408301856121b0565b8181036060830152612f868184612f0c565b905095945050505050565b600081519050612fa081611ec4565b92915050565b600060208284031215612fbc57612fbb611e8e565b5b6000612fca84828501612f91565b91505092915050565b7f4552433732313a206d696e7420746f20746865207a65726f2061646472657373600082015250565b6000613009602083611f5e565b915061301482612fd3565b602082019050919050565b6000602082019050818103600083015261303881612ffc565b9050919050565b7f4552433732313a20746f6b656e20616c7265616479206d696e74656400000000600082015250565b6000613075601c83611f5e565b91506130808261303f565b602082019050919050565b600060208201905081810360008301526130a481613068565b905091905056fe416e204e465420772f20494420257320686173206265656e206d696e74656420746f2025734142434445464748494a4b4c4d4e4f505152535455565758595a6162636465666768696a6b6c6d6e6f707172737475767778797a303132333435363738392b2fa264697066735822122052eefb44a0361d4d7d7c8e0ccd8885837dd7d86bf6931be8a6b4ac512a1d6eb464736f6c634300081100334142434445464748494a4b4c4d4e4f505152535455565758595a6162636465666768696a6b6c6d6e6f707172737475767778797a303132333435363738392b2f",
  "linkReferences": {},
  "deployedLinkReferences": {}
}